{
  "contractName": "Practice1",
  "abi": [
    {
      "constant": true,
      "inputs": [
        {
          "name": "",
          "type": "uint256"
        }
      ],
      "name": "group",
      "outputs": [
        {
          "name": "",
          "type": "uint256"
        }
      ],
      "payable": false,
      "stateMutability": "view",
      "type": "function"
    },
    {
      "constant": false,
      "inputs": [
        {
          "name": "g",
          "type": "uint256"
        }
      ],
      "name": "add",
      "outputs": [
        {
          "name": "",
          "type": "uint256"
        }
      ],
      "payable": false,
      "stateMutability": "nonpayable",
      "type": "function"
    },
    {
      "constant": true,
      "inputs": [
        {
          "name": "num",
          "type": "uint256"
        }
      ],
      "name": "get",
      "outputs": [
        {
          "name": "",
          "type": "uint256"
        }
      ],
      "payable": false,
      "stateMutability": "view",
      "type": "function"
    },
    {
      "constant": true,
      "inputs": [],
      "name": "getArray",
      "outputs": [
        {
          "name": "",
          "type": "uint256[]"
        }
      ],
      "payable": false,
      "stateMutability": "view",
      "type": "function"
    },
    {
      "constant": true,
      "inputs": [],
      "name": "getArrayLength",
      "outputs": [
        {
          "name": "",
          "type": "uint256"
        }
      ],
      "payable": false,
      "stateMutability": "view",
      "type": "function"
    }
  ],
  "bytecode": "0x608060405234801561001057600080fd5b506102db806100206000396000f30060806040526004361061006d576000357c0100000000000000000000000000000000000000000000000000000000900463ffffffff1680630849cc99146100725780630bd0e7fa1461009d5780631003e2d2146100de5780639507d39a1461011f578063d504ea1d14610160575b600080fd5b34801561007e57600080fd5b506100876101cc565b6040518082815260200191505060405180910390f35b3480156100a957600080fd5b506100c8600480360381019080803590602001909291905050506101d8565b6040518082815260200191505060405180910390f35b3480156100ea57600080fd5b50610109600480360381019080803590602001909291905050506101fb565b6040518082815260200191505060405180910390f35b34801561012b57600080fd5b5061014a60048036038101908080359060200190929190505050610235565b6040518082815260200191505060405180910390f35b34801561016c57600080fd5b50610175610257565b6040518080602001828103825283818151815260200191508051906020019060200280838360005b838110156101b857808201518184015260208101905061019d565b505050509050019250505060405180910390f35b60008080549050905090565b6000818154811015156101e757fe5b906000526020600020016000915090505481565b6000808290806001815401808255809150509060018203906000526020600020016000909192909190915055506000805490509050919050565b6000808281548110151561024557fe5b90600052602060002001549050919050565b606060008054806020026020016040519081016040528092919081815260200182805480156102a557602002820191906000526020600020905b815481526020019060010190808311610291575b50505050509050905600a165627a7a72305820544907945755713654f2a133c6479b66aaa5e7569efa1fa3c2cc2e8a5ff0c6400029",
  "source": "pragma solidity ^0.4.23;\n\ncontract Practice1 {\n\n    uint[] public group;\n\n    function add (uint g) public returns (uint) {\n        group.push(g);\n        return group.length;\n    }\n\n    function get(uint num) view returns (uint) {\n        return group[num];\n    }\n\n    function getArray() view returns(uint[]){\n        return group;\n    }\n\n    function getArrayLength() view returns(uint){\n        return group.length;\n    }\n}\n\n//  Practice1.deployed().then(function(instance){ return instance.add(3)});\n//  Practice1.deployed().then(function(instance){ return instance.add(5)});\n//  Practice1.deployed().then(function(instance){ return instance.add(7)});\n//  Practice1.deployed().then(function(instance){ return instance.getArray.call()});\n//  Practice1.deployed().then(function(instance){ return instance.getArray.call()}).then(function(arr){return arr[0]});\n//  Practice1.deployed().then(function(instance){ return instance.getArray.call()}).then(function(arr){return arr[0]}).then(function(value) {console.log(value.toNumber());})\n\n//  Practice1.deployed().then(function(instance){ return instance.get.call(0)}).then(function(value) {console.log(value.toNumber())})\n\n//  Practice1.deployed().then(function(instance){ return instance.getArrayLength.call()});",
  "sourcePath": "/Users/helloworld/Workspace/Truffle/truffleTutorial/Practice1/contracts/Practice1.sol",
  "compiler": {
    "name": "solc",
    "version": "0.4.24+commit.e67f0147.Emscripten.clang"
  },
  "schemaVersion": "2.0.1",
  "updatedAt": "2018-07-11T16:39:25.545Z"
}