{
  "contractName": "Practice2",
  "abi": [
    {
      "constant": true,
      "inputs": [
        {
          "name": "",
          "type": "uint256"
        }
      ],
      "name": "group",
      "outputs": [
        {
          "name": "",
          "type": "bytes32"
        }
      ],
      "payable": false,
      "stateMutability": "view",
      "type": "function"
    },
    {
      "constant": false,
      "inputs": [
        {
          "name": "g",
          "type": "bytes32"
        }
      ],
      "name": "add",
      "outputs": [
        {
          "name": "",
          "type": "uint256"
        }
      ],
      "payable": false,
      "stateMutability": "nonpayable",
      "type": "function"
    },
    {
      "constant": true,
      "inputs": [
        {
          "name": "num",
          "type": "uint256"
        }
      ],
      "name": "get",
      "outputs": [
        {
          "name": "",
          "type": "bytes32"
        }
      ],
      "payable": false,
      "stateMutability": "view",
      "type": "function"
    },
    {
      "constant": true,
      "inputs": [],
      "name": "getArray",
      "outputs": [
        {
          "name": "",
          "type": "bytes32[]"
        }
      ],
      "payable": false,
      "stateMutability": "view",
      "type": "function"
    },
    {
      "constant": true,
      "inputs": [],
      "name": "getArrayLength",
      "outputs": [
        {
          "name": "",
          "type": "uint256"
        }
      ],
      "payable": false,
      "stateMutability": "view",
      "type": "function"
    }
  ],
  "bytecode": "0x608060405234801561001057600080fd5b506102f9806100206000396000f30060806040526004361061006d576000357c0100000000000000000000000000000000000000000000000000000000900463ffffffff1680630849cc99146100725780630bd0e7fa1461009d578063446bffba146100e65780639507d39a1461012b578063d504ea1d14610174575b600080fd5b34801561007e57600080fd5b506100876101e0565b6040518082815260200191505060405180910390f35b3480156100a957600080fd5b506100c8600480360381019080803590602001909291905050506101ec565b60405180826000191660001916815260200191505060405180910390f35b3480156100f257600080fd5b50610115600480360381019080803560001916906020019092919050505061020f565b6040518082815260200191505060405180910390f35b34801561013757600080fd5b506101566004803603810190808035906020019092919050505061024f565b60405180826000191660001916815260200191505060405180910390f35b34801561018057600080fd5b50610189610271565b6040518080602001828103825283818151815260200191508051906020019060200280838360005b838110156101cc5780820151818401526020810190506101b1565b505050509050019250505060405180910390f35b60008080549050905090565b6000818154811015156101fb57fe5b906000526020600020016000915090505481565b6000808290806001815401808255809150509060018203906000526020600020016000909192909190915090600019169055506000805490509050919050565b6000808281548110151561025f57fe5b90600052602060002001549050919050565b606060008054806020026020016040519081016040528092919081815260200182805480156102c357602002820191906000526020600020905b815460001916815260200190600101908083116102ab575b50505050509050905600a165627a7a72305820b44e1e5916dbcf7d58d82ee5ee731488171cf97a820e0788124249489ba3b4570029",
  "source": "pragma solidity ^0.4.23;\n\ncontract Practice2 {\n\n    bytes32[] public group;\n\n    function add (bytes32 g) public returns (uint) {\n        group.push(g);\n        return group.length;\n    }\n\n    function get(uint num) view returns (bytes32) {\n        return group[num];\n    }\n\n    function getArray() view returns(bytes32[]){\n        return group;\n    }\n\n    function getArrayLength() view returns(uint){\n        return group.length;\n    }\n}\n\n//  Practice2.deployed().then(function(instance){ return instance.add(3)});\n//  Practice2.deployed().then(function(instance){ return instance.add(5)});\n//  Practice2.deployed().then(function(instance){ return instance.add(7)});\n//  Practice2.deployed().then(function(instance){ return instance.getArray.call()});\n//  Practice2.deployed().then(function(instance){ return instance.getArray.call()}).then(function(arr){return arr[0]});\n//  Practice2.deployed().then(function(instance){ return instance.getArray.call()}).then(function(arr){return arr[0]}).then(function(value) {console.log(value.toNumber());})\n//  Practice2.deployed().then(function(instance){ return instance.get.call(0)}).then(function(value) {console.log(value.toNumber())})\n//  Practice2.deployed().then(function(instance){ return instance.getArrayLength.call()}).then(function(value) {console.log(value.toNumber());});",
  "sourcePath": "/Users/helloworld/Workspace/Truffle/truffleTutorial/Practice2/contracts/Practice2.sol",
  "compiler": {
    "name": "solc",
    "version": "0.4.24+commit.e67f0147.Emscripten.clang"
  },
  "schemaVersion": "2.0.1",
  "updatedAt": "2018-07-11T17:09:34.526Z"
}